:020000040000FA
:1000000000008A110A120F2F83120313BE0005305D
:100010003E02031836280030831203138A00193079
:10002000831203133E07031C1828831203138A0A42
:1000300082001E28232828282D2832288312031303
:100040000509850036288312031306098600362821
:100050008312031307098700362883120313080944
:1000600088003628831203130909890008008312C7
:100070000313B4007F08B500053034020318322A98
:100080000030831203138A004E30831203133407A7
:10009000031C4D28831203138A0A82005328B328B5
:1000A00013297329D329003083120313B6000130BA
:1000B000B4003508003C0319642883120313B40DFF
:1000C000B60D013E031C5D2883120313050883123D
:1000D0000313B700B8013708B4050030B605360879
:1000E000B8003408B7003508003C03198128031014
:1000F00083120313B81B0314B80CB70C013E031C86
:100100007728831203133708B4000130B70035088D
:10011000003C0319912883120313B70D013E031C01
:100120008B2883120313B709831203130508831264
:100130000313B7053408003003190130B600B900C5
:100140003508003C0319AA2883120313B90D013E98
:10015000031CA428831203133708B6003904831242
:1001600003138500322A003083120313B7000130D5
:10017000B6003508003C0319C42883120313B60DDA
:10018000B70D013E031CBD2883120313060883121A
:100190000313B900BA013908B6050030B7053708AE
:1001A000BA003608B9003508003C0319E1280310ED
:1001B00083120313BA1B0314BA0CB90C013E031CBF
:1001C000D728831203133908B4000130B900350869
:1001D000003C0319F12883120313B90D013E031CDF
:1001E000EB2883120313B909831203130608831241
:1001F0000313B9053408003003190130B600B70005
:100200003508003C03190A2983120313B70D013E78
:10021000031C0429831203133908B6003704831220
:1002200003138600322A003083120313B700013013
:10023000B6003508003C0319242983120313B60DB8
:10024000B70D013E031C1D298312031307088312F7
:100250000313B900BB013908B6050030B7053708EC
:10026000BB003608B9003508003C031941290310CA
:1002700083120313BB1B0314BB0CB90C013E031CFC
:100280003729831203133908B4000130B900350847
:10029000003C0319512983120313B90D013E031CBD
:1002A0004B2983120313B90983120313070883121E
:1002B0000313B9053408003003190130B600B70044
:1002C0003508003C03196A2983120313B70D013E58
:1002D000031C6429831203133908B6003704831200
:1002E00003138700322A003083120313B700013052
:1002F000B6003508003C0319842983120313B60D98
:10030000B70D013E031C7D298312031308088312D5
:100310000313B900BC013908B6050030B70537082A
:10032000BC003608B9003508003C0319A1290310A8
:1003300083120313BC1B0314BC0CB90C013E031C39
:100340009729831203133908B4000130B900350826
:10035000003C0319B12983120313B90D013E031C9C
:10036000AB2983120313B9098312031308088312FC
:100370000313B9053408003003190130B600B70083
:100380003508003C0319CA2983120313B70D013E37
:10039000031CC429831203133908B60037048312DF
:1003A00003138800322A003083120313B700013090
:1003B000B6003508003C0319E42983120313B60D77
:1003C000B70D013E031CDD298312031309088312B4
:1003D0000313B900BD013908B6050030B705370869
:1003E000BD003608B9003508003C0319012A031086
:1003F00083120313BD1B0314BD0CB90C013E031C77
:10040000F729831203133908B4000130B900350805
:10041000003C0319112A83120313B90D013E031C7A
:100420000B2A83120313B9098312031309088312D9
:100430000313B9053408003003190130B600B400C5
:100440003508003C03192A2A83120313B40D013E18
:10045000031C242A831203133908B50034048312C1
:1004600003138900080083120313B200B30105309F
:1004700032020318702A0230831203138A004930B3
:10048000831203133207031C482A831203138A0AB8
:1004900082004E2A552A5C2A632A6A2A8312031391
:1004A000050883120313B300702A8312031306088E
:1004B00083120313B300702A8312031307088312F5
:1004C0000313B300702A8312031308088312031363
:1004D000B300702A83120313090883120313B300B5
:1004E000831203133308080083120313AC007F0840
:1004F000AD00AE0105302C0203188F2B02308312A1
:1005000003138A008C30831203132C07031C8B2ADD
:10051000831203138A0A8200912AC42AF72A2A2BFB
:100520005D2B003083120313AF000130AC002D08A7
:10053000003C0319A22A83120313AC0DAF0D013E38
:10054000031C9B2A83120313050883120313B000B4
:10055000B1013008AC050030AF052F08B1002C0800
:10056000B0002D08003C0319BF2A031083120313A7
:10057000B11B0314B10CB00C013E031CB52A83124D
:1005800003133008AE008F2B003083120313AF002B
:100590000130AC002D08003C0319D52A8312031347
:1005A000AC0DAF0D013E031CCE2A831203130608C7
:1005B00083120313B000B1013008AC050030AF0561
:1005C0002F08B1002C08B0002D08003C0319F22AB6
:1005D000031083120313B11B0314B10CB00C013EC2
:1005E000031CE82A831203133008AE008F2B00305F
:1005F00083120313AF000130AC002D08003C031937
:10060000082B83120313AC0DAF0D013E031C012B0D
:1006100083120313070883120313B000B1013008DB
:10062000AC050030AF052F08B1002C08B0002D0834
:10063000003C0319252B031083120313B11B031471
:10064000B10CB00C013E031C1B2B831203133008AA
:10065000AE008F2B003083120313AF000130AC00CB
:100660002D08003C03193B2B83120313AC0DAF0D77
:10067000013E031C342B8312031308088312031357
:10068000B000B1013008AC050030AF052F08B10053
:100690002C08B0002D08003C0319582B03108312BE
:1006A0000313B11B0314B10CB00C013E031C4E2B01
:1006B000831203133008AE008F2B00308312031314
:1006C000AF000130AC002D08003C03196E2B8312E3
:1006D0000313AC0DAF0D013E031C672B83120313F4
:1006E000090883120313B000B1013008AC050030D3
:1006F000AF052F08B1002C08B0002D08003C0319ED
:100700008B2B031083120313B11B0314B10CB00C19
:10071000013E031C812B831203133008AE008312A9
:1007200003132E08080083120313AA007F08AB00EE
:1007300005302A020318D12B0330831203138A00D9
:10074000AA30831203132A07031CA92B8312031355
:100750008A0A8200AF2BB62BBD2BC42BCB2B831266
:1007600003132B08831203138500D12B8312031369
:100770002B08831203138600D12B831203132B083B
:10078000831203138700D12B831203132B088312C8
:1007900003138800D12B831203132B088312031336
:1007A0008900080083120313A6007F08A7007E08B3
:1007B000A800053026020318C62C03308312031349
:1007C0008A00EB30831203132607031CEA2B8312E3
:1007D00003138A0A8200F02B1B2C462C712C9C2CB4
:1007E000013083120313A6002708003C0319FE2BD7
:1007F00083120313A60D013E031CF82B831203136F
:10080000A60983120313050883120313A6052808FB
:10081000A9002708003C0319132C83120313A90D08
:10082000013E031C0D2C8312031329082604831296
:1008300003138500C62C013083120313A60027087A
:10084000003C0319292C83120313A60D013E031C3F
:10085000232C83120313A6098312031306088312A1
:100860000313A6052808A9002708003C03193E2CFD
:1008700083120313A90D013E031C382C83120313AA
:1008800029082604831203138600C62C0130831224
:100890000313A6002708003C0319542C83120313EA
:1008A000A60D013E031C4E2C83120313A6098312CE
:1008B0000313070883120313A6052808A9002708B5
:1008C000003C0319692C83120313A90D013E031C7C
:1008D000632C831203132908260483120313870051
:1008E000C62C013083120313A6002708003C03190D
:1008F0007F2C83120313A60D013E031C792C831257
:100900000313A60983120313080883120313A60511
:100910002808A9002708003C0319942C831203130C
:10092000A90D013E031C8E2C8312031329082604F3
:10093000831203138800C62C013083120313A60010
:100940002708003C0319AA2C83120313A60D013EAD
:10095000031CA42C83120313A60983120313090892
:1009600083120313A6052808A9002708003C0319D1
:10097000BF2C83120313A90D013E031CB92C831253
:100980000313290826048312031389000800831225
:100990000313A4007F08A500053024020318052DC9
:1009A0000430831203138A00DE30831203132407FA
:1009B000031CDD2C831203138A0A8200E32CEA2C29
:1009C000F12CF82CFF2C8312031325088316031334
:1009D0008500052D83120313250883160313860053
:1009E000052D831203132508831603138700052D95
:1009F000831203132508831603138800052D831221
:100A000003132508831603138900080083120313B8
:100A1000A0007F08A1007E08A20005302002031874
:100A2000FA2D0530831203138A001F30831203133B
:100A30002007031C1E2D831203138A0A8200242D13
:100A40004F2D7A2DA52DD02D013083120313A00038
:100A50002108003C0319322D83120313A00D013E1F
:100A6000031C2C2D83120313A009831603130508FE
:100A700083120313A0052208A3002108003C0319D8
:100A8000472D83120313A30D013E031C412D831236
:100A9000031323082004831603138500FA2D013065
:100AA00083120313A0002108003C03195D2D83125B
:100AB0000313A00D013E031C572D83120313A0093D
:100AC00083160313060883120313A0052208A3004C
:100AD0002108003C0319722D83120313A30D013E5C
:100AE000031C6C2D831203132308200483160313A5
:100AF0008600FA2D013083120313A0002108003C68
:100B00000319882D83120313A00D013E031C822DAF
:100B100083120313A0098316031307088312031318
:100B2000A0052208A3002108003C03199D2D831273
:100B30000313A30D013E031C972D831203132308F7
:100B40002004831603138700FA2D01308312031348
:100B5000A0002108003C0319B32D83120313A00D3C
:100B6000013E031CAD2D83120313A009831603134A
:100B7000080883120313A0052208A3002108003CE3
:100B80000319C82D83120313A30D013E031CC22DAC
:100B90008312031323082004831603138800FA2DFD
:100BA000013083120313A0002108003C0319DE2D3D
:100BB00083120313A00D013E031CD82D83120313CF
:100BC000A00983160313090883120313A005220842
:100BD000A3002108003C0319F32D83120313A30D76
:100BE000013E031CED2D83120313230820048316FA
:100BF00003138900080083120313D6001126831201
:100C00000313D7005708031D0A2E0130FF005608B2
:100C10005E26102E0030FF008312031356085E2656
:100C2000080083120313D400D501043054020318C2
:100C30005A2E0630831203138A00273083120313BF
:100C40005407031C262E831203138A0A82002B2EBC
:100C5000372E432E4F2E0030FF0001308A110A122A
:100C600074228A110A1283120313D5005A2E0130FE
:100C7000FF0001308A110A1274228A110A128312AB
:100C80000313D5005A2E0230FF0001308A110A12D8
:100C900074228A110A1283120313D5005A2E0330CC
:100CA000FF0001308A110A1274228A110A1283127B
:100CB0000313D5008312031355080800831203138E
:100CC000D4007F08D500043054020318AC2E06303F
:100CD000831203138A007530831203135407031C15
:100CE000742E831203138A0A8200792E862E932E85
:100CF000A02E831203135508FE000030FF000130C0
:100D00008A110A12D2238A110A12AC2E83120313FB
:100D10005508FE000130FF0001308A110A12D2236B
:100D20008A110A12AC2E831203135508FE000230FA
:100D3000FF0001308A110A12D2238A110A12AC2E46
:100D4000831203135508FE000330FF0001308A119F
:100D50000A12D2238A110A1208000030FB25013042
:100D6000FB250230FB250330FB252830FF00003037
:100D70008A150A1200208A110A120800831203132E
:100D8000D2007F08D300043052020318042F06302B
:100D9000831203138A00D530831203135207031CF6
:100DA000D42E831203138A0A8200D92EE42EEF2E4A
:100DB000FA2E0030FE000030FF0001308A110A12C6
:100DC00006258A110A12042F0030FE000130FF00B0
:100DD00001308A110A1206258A110A12042F0030E6
:100DE000FE000230FF0001308A110A1206258A1126
:100DF0000A12042F0030FE000330FF0001308A1178
:100E00000A1206258A110A12831203135308FF00DF
:100E100052088A110A125E268A110A120800DF306F
:100E2000FE000730FF0080308A110A12BE278A11A7
:100E30000A1283120313C0007F08BF00E130C10013
:100E40000730C200831203133F08C3004008C400E8
:100E5000FF30BF07031CC003430844040319A72F36
:100E600004304107C300C401C40D4208C40743084D
:100E7000FE004408FF0080308A110A12BE278A1142
:100E80000A1283120313C6007F08C5004108FE0042
:100E90004208FF0080308A110A12BE278A110A1206
:100EA00083120313C800C4007F08C700C3000230C8
:100EB0004107C300C401C40D4208C4074308FE0033
:100EC0004408FF0080308A110A12BE278A110A12D4
:100ED00083120313C400CA007F08C300C900831231
:100EE00003134508C9004608CA00FF30C507031CA4
:100EF000C60349084A040319A02F4708FE00480802
:100F0000FF0080308A110A12AB278A110A1283125D
:100F10000313C9004308831203138400831383124D
:100F200003134418831749088312031380008312A4
:100F30000313C70A0319C80AC30A0319C40A6F2F87
:100F4000063083120313C1070318C20A222F8A1521
:100F50000A122E280800003A0319B22F803A03190A
:100F6000B92F00347E08840083137F18831700088C
:100F700008007F088A007E0882000800003A0319F2
:100F8000C62F803A0319D02FFF0100347E08840059
:100F900083137F1883170008FF00840A00080800E5
:100FA0008A110A12B927FD00FE0FFF03FF0A8A11FA
:100FB0000A12B927FC007D08FF007C0808000134F4
:100FC0000034E7340734583400340134003400343A
:1010000083120313CC007F08CB000130CD00CE014A
:10101000013083120313CF00D001831203134F0852
:10102000D10050084C02031D172851084B02031C25
:101030001F2883120313CF0A0319D00A0D28831225
:101040000313CD0A0319CE0A4E08803E7D3E031DD0
:101050002B28E9304D02031C082808000130FF004E
:1010600000308A110A12BE268A150A120030FF00CB
:1010700001308A110A12BE268A150A120030FF00BA
:1010800002308A110A12BE268A150A120030FF00A9
:1010900003308A110A12BE268A150A128A110A1210
:0A10A000AD268A150A124E2808003A
:02400E00323F3F
:00000001FF
