:020000040000FA
:1000000000008A150A12A52CF200030E8301F100EC
:100010000A088A01F00004088312031796001430BE
:10002000FD000030FE00831203171208FF001308C2
:100030008A110A125E268A110A128312031791008E
:100040007F0890001104031D2F288A150A122C2006
:100050008A110A128A110A1216278A110A128A159F
:100060000A1266238A110A12043083120317120738
:100070008312031790009101910D83120317130847
:100080008312031791071430FD000030FE001008A2
:10009000FF0011088A110A125E268A110A128312C1
:1000A000031793007F089200831203130B11E030B3
:1000B000810083120317160883120313840070084B
:1000C0008A008301710E8300F20E720E0900831202
:1000D0000313BE0005303E02031899280030831236
:1000E00003138A007C30831203133E07031C7B2812
:1000F000831203138A0A8200812886288B2890287D
:100100009528831203130509850099288312031388
:100110000609860099288312031307098700992886
:10012000831203130809880099288312031309090D
:100130008900080083120313B4007F08B50005305E
:1001400034020318952A0030831203138A00B13059
:10015000831203133407031CB028831203138A0A83
:100160008200B62816297629D629362A003083122D
:100170000313B6000130B4003508003C0319C7284A
:1001800083120313B40DB60D013E031CC028831265
:100190000313050883120313B700B8013708B40529
:1001A0000030B6053608B8003408B7003508003C02
:1001B0000319E428031083120313B81B0314B80CAB
:1001C000B70C013E031CDA28831203133708B4006E
:1001D0000130B7003508003C0319F42883120313DB
:1001E000B70D013E031CEE2883120313B7098312D7
:1001F0000313050883120313B705340800300319ED
:100200000130B600B9003508003C03190D298312EE
:100210000313B90D013E031C07298312031337088A
:10022000B6003904831203138500952A0030831227
:100230000313B7000130B6003508003C0319272925
:1002400083120313B60DB70D013E031C2029831240
:100250000313060883120313B900BA013908B6055F
:100260000030B7053708BA003608B9003508003C39
:1002700003194429031083120313BA1B0314BA0C85
:10028000B90C013E031C3A29831203133908B40048
:100290000130B9003508003C0319542983120313B7
:1002A000B90D013E031C4E2983120313B9098312B1
:1002B0000313060883120313B90534080030031929
:1002C0000130B600B7003508003C03196D298312D0
:1002D0000313B70D013E031C67298312031339086A
:1002E000B6003704831203138600952A0030831268
:1002F0000313B7000130B6003508003C0319872905
:1003000083120313B60DB70D013E031C802983121F
:100310000313070883120313B900BB013908B6059C
:100320000030B7053708BB003608B9003508003C77
:100330000319A429031083120313BB1B0314BB0C62
:10034000B90C013E031C9A29831203133908B40027
:100350000130B9003508003C0319B4298312031396
:10036000B90D013E031CAE2983120313B909831290
:100370000313070883120313B90534080030031967
:100380000130B600B7003508003C0319CD298312AF
:100390000313B70D013E031CC72983120313390849
:1003A000B6003704831203138700952A00308312A6
:1003B0000313B7000130B6003508003C0319E729E4
:1003C00083120313B60DB70D013E031CE0298312FF
:1003D0000313080883120313B900BC013908B605DA
:1003E0000030B7053708BC003608B9003508003CB6
:1003F0000319042A031083120313BC1B0314BC0C3F
:10040000B90C013E031CFA29831203133908B40006
:100410000130B9003508003C0319142A8312031374
:10042000B90D013E031C0E2A83120313B90983126E
:100430000313080883120313B905340800300319A5
:100440000130B600B7003508003C03192D2A83128D
:100450000313B70D013E031C272A83120313390827
:10046000B6003704831203138800952A00308312E4
:100470000313B7000130B6003508003C0319472AC2
:1004800083120313B60DB70D013E031C402A8312DD
:100490000313090883120313B900BD013908B60517
:1004A0000030B7053708BD003608B9003508003CF4
:1004B0000319642A031083120313BD1B0314BD0C1C
:1004C000B90C013E031C5A2A831203133908B400E5
:1004D0000130B9003508003C0319742A8312031354
:1004E000B90D013E031C6E2A83120313B90983124E
:1004F0000313090883120313B905340800300319E4
:100500000130B600B4003508003C03198D2A83126F
:100510000313B40D013E031C872A83120313390809
:10052000B5003404831203138900080083120313F7
:10053000B200B301053032020318D32A023083120D
:1005400003138A00AC30831203133207031CAB2A57
:10055000831203138A0A8200B12AB82ABF2AC62A44
:10056000CD2A83120313050883120313B300D32A81
:1005700083120313060883120313B300D32A8312D2
:100580000313070883120313B300D32A8312031340
:10059000080883120313B300D32A83120313090834
:1005A00083120313B300831203133308080083126A
:1005B0000313AC007F08AD00AE0105302C02031818
:1005C000F22B0230831203138A00EF3083120313DD
:1005D0002C07031CEE2A831203138A0A8200F42AD2
:1005E000272B5A2B8D2BC02B003083120313AF0007
:1005F0000130AC002D08003C0319052B83120313B6
:10060000AC0DAF0D013E031CFE2A83120313050837
:1006100083120313B000B1013008AC050030AF0500
:100620002F08B1002C08B0002D08003C0319222B24
:10063000031083120313B11B0314B10CB00C013E61
:10064000031C182B831203133008AE00F22B00306A
:1006500083120313AF000130AC002D08003C0319D6
:10066000382B83120313AC0DAF0D013E031C312B4D
:1006700083120313060883120313B000B10130087C
:10068000AC050030AF052F08B1002C08B0002D08D4
:10069000003C0319552B031083120313B11B0314E1
:1006A000B10CB00C013E031C4B2B8312031330081A
:1006B000AE00F22B003083120313AF000130AC0008
:1006C0002D08003C03196B2B83120313AC0DAF0DE7
:1006D000013E031C642B83120313070883120313C8
:1006E000B000B1013008AC050030AF052F08B100F3
:1006F0002C08B0002D08003C0319882B031083122E
:100700000313B11B0314B10CB00C013E031C7E2B70
:10071000831203133008AE00F22B00308312031350
:10072000AF000130AC002D08003C03199E2B831252
:100730000313AC0DAF0D013E031C972B8312031363
:10074000080883120313B000B1013008AC05003073
:10075000AF052F08B1002C08B0002D08003C03198C
:10076000BB2B031083120313B11B0314B10CB00C89
:10077000013E031CB12B831203133008AE00F22B91
:10078000003083120313AF000130AC002D08003C91
:100790000319D12B83120313AC0DAF0D013E031CC3
:1007A000CA2B83120313090883120313B000B1018B
:1007B0003008AC050030AF052F08B1002C08B000A0
:1007C0002D08003C0319EE2B031083120313B11BF9
:1007D0000314B10CB00C013E031CE42B8312031371
:1007E0003008AE00831203132E080800831203138F
:1007F000AA007F08AB0005302A020318342C04300D
:10080000831203138A000D30831203132A07031C7B
:100810000C2C831203138A0A8200122C192C202C10
:10082000272C2E2C831203132B088312031385000D
:10083000342C831203132B08831203138600342CE9
:10084000831203132B08831203138700342C8312A3
:1008500003132B08831203138800342C8312031311
:100860002B08831203138900080083120313A600C8
:100870007F08A7007E08A800053026020318292D4E
:100880000430831203138A004E30831203132607A9
:10089000031C4D2C831203138A0A8200532C7E2CD6
:1008A000A92CD42CFF2C013083120313A600270897
:1008B000003C0319612C83120313A60D013E031C97
:1008C0005B2C83120313A6098312031305088312FA
:1008D0000313A6052808A9002708003C0319762C55
:1008E00083120313A90D013E031C702C8312031302
:1008F00029082604831203138500292D0130831251
:100900000313A6002708003C03198C2C8312031341
:10091000A60D013E031C862C83120313A609831225
:100920000313060883120313A6052808A900270845
:10093000003C0319A12C83120313A90D013E031CD3
:100940009B2C8312031329082604831203138600A9
:10095000292D013083120313A6002708003C031938
:10096000B72C83120313A60D013E031CB12C831276
:100970000313A60983120313070883120313A605A2
:100980002808A9002708003C0319CC2C8312031364
:10099000A90D013E031CC62C83120313290826044B
:1009A000831203138700292D013083120313A6003D
:1009B0002708003C0319E22C83120313A60D013E05
:1009C000031CDC2C83120313A609831203130808EB
:1009D00083120313A6052808A9002708003C031961
:1009E000F72C83120313A90D013E031CF12C831273
:1009F000031329082604831203138800292D0130CC
:100A000083120313A6002708003C03190D2D83123F
:100A10000313A60D013E031C072D83120313A60921
:100A200083120313090883120313A6052808A900DB
:100A30002708003C0319222D83120313A90D013E40
:100A4000031C1C2D8312031329082604831203138D
:100A50008900080083120313A4007F08A500053055
:100A600024020318682D0530831203138A004130D5
:100A7000831203132407031C402D831203138A0AD5
:100A80008200462D4D2D542D5B2D622D83120313B4
:100A90002508831603138500682D83120313250888
:100AA000831603138600682D83120313250883160B
:100AB00003138700682D831203132508831603137D
:100AC0008800682D831203132508831603138900F9
:100AD000080083120313A0007F08A1007E08A20073
:100AE0000530200203185D2E0530831203138A009F
:100AF0008230831203132007031C812D83120313FA
:100B00008A0A8200872DB22DDD2D082E332E01306A
:100B100083120313A0002108003C0319952D8312B2
:100B20000313A00D013E031C8F2D83120313A00994
:100B300083160313050883120313A0052208A300DC
:100B40002108003C0319AA2D83120313A30D013EB3
:100B5000031CA42D831203132308200483160313FC
:100B600085005D2E013083120313A0002108003C94
:100B70000319C02D83120313A00D013E031CBA2DCF
:100B800083120313A00983160313060883120313A9
:100B9000A0052208A3002108003C0319D52D8312CB
:100BA0000313A30D013E031CCF2D8312031323084F
:100BB00020048316031386005D2E01308312031375
:100BC000A0002108003C0319EB2D83120313A00D94
:100BD000013E031CE52D83120313A00983160313A2
:100BE000070883120313A0052208A3002108003C74
:100BF0000319002E83120313A30D013E031CFA2DCB
:100C000083120313230820048316031387005D2E29
:100C1000013083120313A0002108003C0319162E93
:100C200083120313A00D013E031C102E8312031325
:100C3000A00983160313080883120313A0052208D2
:100C4000A3002108003C03192B2E83120313A30DCC
:100C5000013E031C252E8312031323082004831650
:100C6000031388005D2E013083120313A0002108B6
:100C7000003C0319412E83120313A00D013E031CF7
:100C80003B2E83120313A009831603130908831252
:100C90000313A0052208A3002108003C0319562EC7
:100CA00083120313A30D013E031C502E8312031362
:100CB00023082004831603138900080083160313F6
:100CC000B9007F08B8007E08BB007D08BA00031495
:100CD000B91F0310031CBC2E0314BB1F0310031CFD
:100CE000992E3809BC003909BD00BC0A0319BD0A98
:100CF0003C08BE003D08BF003A09BC003B09BD00EE
:100D0000BC0A0319BD0A3C08C000FD003D08C10033
:100D1000FE003E08FF003F088A150A128D258A1141
:100D20000A1283160313BD007F08BC00FF003D08B4
:100D3000FF2E831603133809BC003909BD00BC0A15
:100D40000319BD0A3C08BE003D08BF003A08BC00BC
:100D5000FD003B08BD00FE003E08FF003F088A156D
:100D60000A128D258A110A1283160313BD007F080B
:100D7000BC00FF003D08FF2E031483160313BB1FA6
:100D80000310031CE42E3808BC003908BD003A09E2
:100D9000BE003B09BF00BE0A0319BF0A3E08C000DF
:100DA000FD003F08C100FE003C08FF003D088A1519
:100DB0000A128D258A110A1283160313BD007F08BB
:100DC000BC00FF003D08FF2E831603133808BC004B
:100DD0003908BD003A08B800FD003B08B900FE0024
:100DE0003C08FF003D088A150A128D258A110A1257
:100DF00083160313B9007F08B800FF003908080004
:100E0000831603136D0883160313E0008316031380
:100E10006E0883160313E1006008FF0061080800F4
:100E200083160313EE007F08ED00080000308A15DA
:100E30000A1200208A110A1283160313DB00013004
:100E40008A150A1200208A110A1283160313DC0085
:100E5000013A031D2F2F83160313ED01EE018316B4
:100E600003135B08033A031D552F01308316031348
:100E70006D0783160313DB00DC01DC0D83160313FF
:100E80006E0883160313DC070F30FD002730FE00C9
:100E90005B08FF005C088A150A128D258A110A1268
:100EA00083160313EE007F08ED00831603136D080D
:100EB00083160313DB00831603136E0883160313D4
:100EC000DC000330DD00DE010A30FD000030FE00F2
:100ED000831603135B08FF005C088A150A128D2530
:100EE0008A110A127F0883160313DF00FF005D08D2
:100EF000DF008A150A1213238A110A120A30FD0034
:100F00000030FE00831603135B08FF005C088A11A3
:100F10000A12A1278A110A1283160313DC007F0824
:100F2000DB00FF30DD07031CDE030314DE1F0310AC
:100F3000031C642F080083160313EE007F08ED00E6
:100F4000080083160313C3007F08C2007E08C50093
:100F50007D08C400C601C7010130C800C9014408AA
:100F60004504031DB72FFF30FF00FF30EF2F83161E
:100F7000031344084508CA00CA1BC52F0310C40D3B
:100F8000C50D0310C80DC90DB72F831603134808EC
:100F900049040319EA2F45084302031DD12F4408D1
:100FA0004202031CE12F831603134808C6074908B1
:100FB0000318490FC7074408C2024508031C450F20
:100FC000C302031083160313C50CC40C0310C90C11
:100FD000C80CC52F831603134608FF0047080800F6
:100FE0003F3406345B344F3466346D347D3407341B
:0C0FF0007F346F340034003400340034CF
:1010000083120313E1000330FF0061088A150A12FE
:1010100036268A150A1283120313E200E3016208DE
:10102000A03EE1000030E40000300318630FE40745
:101030000230E1070318E40A6108831203138400F5
:101040008313831203136418831783120313000896
:1010500083120313E200080083120313D901033043
:10106000FF008312031359088A150A1236268A15BF
:101070000A1283120313DA00DB015A08A03EDC00D7
:101080000030DD00003003185B0FDD075A08A03E7A
:10109000DA005B0803185B0F003EDB00DA0A031975
:1010A000DB0A5A0883120313840083138312031389
:1010B0005B18831783120313000883120313DE00E7
:1010C0005C088312031384008313831203135D18D7
:1010D00083175E0883120313800004308312031306
:1010E00059020318E8280830831203138A0081305C
:1010F000831203135907031C8028831203138A0ADF
:10110000820085289E28B728D0280030FF000130B3
:101110008A110A12D7228A150A1283120313DC00DD
:101120005A088312031384008313831203135B187A
:1011300083175C08831203138000E8280130FF0046
:1011400001308A110A12D7228A150A128312031358
:10115000DC005A08831203138400831383120313E1
:101160005B1883175C08831203138000E8280230A1
:10117000FF0001308A110A12D7228A150A1283123F
:101180000313DC005A0883120313840083138312B1
:1011900003135B1883175C08831203138000E8288D
:1011A0000330FF0001308A110A12D7228A150A1271
:1011B00083120313DC005A08831203138400831381
:1011C000831203135B1883175C08831203138000D8
:1011D0000330FF008312031359088A150A123626BA
:1011E0008A150A1283120313DA00DB015A08A03EA3
:1011F000DA00003003185B0F003EDB0002305A07B4
:10120000DC00DD01DD0D5B08DD075C0883120313E4
:1012100084008313831203135D188317831203134F
:10122000000883120313DE0004305E020318112A43
:101230000930831203138A002630831203135E07DA
:10124000031C2529831203138A0A82002A29DB2919
:10125000A0296529831203135A08831203138400FB
:101260008313831203135B1883178312031300087D
:1012700083120313DE005E08031D112A01305A0792
:10128000DE00DF01DF0D5B08DF075E08831203135A
:1012900084008313831203135F18831783120313CD
:1012A000000883120313E0006008031D112A5C0884
:1012B0008312031384008313831203135D188317AF
:1012C0000330831203138000112A831203135A0878
:1012D0008312031384008313831203135B18831791
:1012E00083120313000883120313DE005E08031D3C
:1012F000112A01305A07DE00DF01DF0D5B08DF072E
:101300005E088312031384008313831203135F1890
:10131000831783120313000883120313E00060088D
:10132000031D112A5C0883120313840083138312A4
:1013300003135D1883170230831203138000112AF0
:10134000831203135A088312031384008313831236
:1013500003135B188317831203130008831203130C
:10136000DE00013A031D112A01305A07DE00DF01B9
:10137000DF0D5B08DF075E0883120313840083130D
:10138000831203135F188317831203130008831259
:101390000313E000013A031D112A5C0883120313B2
:1013A00084008313831203135D18831701308312A3
:1013B00003138000112A831203135A0883120313A4
:1013C00084008313831203135B18831783120313A0
:1013D000000883120313DE00013A031D112ADA0A02
:1013E0000319DB0A5A088312031384008313831240
:1013F00003135B188317831203130008831203136C
:10140000DE00013A031D112A5C08831203138400D5
:101410008313831203135D188317003083120313A1
:10142000800083120313D90A04305902031C2F28A9
:10143000080083120313D4007F08D500043054023F
:1014400003185F2A0A30831203138A003030831294
:1014500003135407031C2F2A831203138A0A8200E2
:10146000342A3F2A4A2A552A0130FE000030FF0064
:1014700001308A110A1269258A150A125F2A013081
:10148000FE000130FF0001308A110A1269258A1519
:101490000A125F2A0130FE000230FF0001308A117B
:1014A0000A1269258A150A125F2A0130FE000330EC
:1014B000FF0001308A110A1269258A150A120330C9
:1014C000FF008312031354088A150A1236268A1560
:1014D0000A1283120313D600D7015608A03ED60085
:1014E0000030D40000300318570FD40702305607DD
:1014F000D700D801D80D5408D80757088312031312
:10150000840083138312031358188317550883121A
:101510000313800004308312031355020318E92AD1
:101520000A30831203138A009E3083120313550777
:10153000031C9D2A831203138A0A8200A22AA22A6C
:10154000C82AC82A8312031356088312031384007F
:101550008313831203135418831701308312031368
:1015600080000130831203135607D500D701D70D31
:101570005408D7075508831203138400831383127A
:101580000313571883170130831203138000E92ACD
:1015900083120313560883120313840083138312E8
:1015A000031354188317003083120313800083122F
:1015B0000313D60A0319D40A5608831203138400AE
:1015C00083138312031354188317003083120313F9
:1015D000800008000030FE000730FF0001308A1153
:1015E0000A1235248A150A120030FE000630FF0068
:1015F00001308A110A1235248A150A120030FE00C1
:101600000530FF0001308A110A1235248A150A12AA
:101610000030FE000430FF0001308A110A12352428
:101620008A150A12080083120313CE007F08CF0028
:101630000230FF004E088A150A1236268A150A1251
:1016400083120313D000D1015008CB3ECE000030EE
:10165000D20000300318510FD207CE0A0319D20A64
:101660004E0883120313840083138312031352184A
:1016700083174F088312031380000800831203139B
:10168000C9007F08CA000230FF0049088A150A1203
:1016900036268A150A1283120313CB00CC014B089D
:1016A000CB3EC9000030CD00003003184C0FCD07F1
:1016B00049088312031384008313831203134D1804
:1016C00083174A088312031380000800EA220230BD
:1016D000FF008312031353088A150A1236268A154F
:1016E0000A1283120313C500C6014508CB3EC7008A
:1016F0000030C80000300318460FC807470883129F
:10170000031384008313831203134818831783126F
:1017100003130008013A031D082C83120313450824
:10172000CB3EC50046080318460F003EC600C50A5A
:101730000319C60A45088312031384008313831216
:10174000031346188317831203130008831203132D
:10175000C700653EC50000300318013EC6004508BD
:101760008312031384008313831203134618831711
:1017700083120313000883120313C700FF00033012
:101780008A110A12F6238A150A12043083120313EF
:1017900053020318082C0B30831203138A00D9302C
:1017A000831203135307031CD82B831203138A0AD3
:1017B0008200DD2BE82BF32BFE2B0130FE000730DF
:1017C000FF0001308A110A1235248A150A12082CEA
:1017D0000130FE000630FF0001308A110A12352464
:1017E0008A150A12082C0130FE000530FF00013076
:1017F0008A110A1235248A150A12082C0130FE00BB
:101800000430FF0001308A110A1235248A150A12A9
:10181000831203135308033A031D102CD301132C16
:1018200083120313D30A080083120313BF007F0837
:10183000C0007E08C1000030FF0003308A110A1288
:101840002A258A150A120430831203133F02031853
:10185000662C0C30831203138A0037308312031373
:101860003F07031C362C831203138A0A82003B2C89
:10187000462C512C5C2C0030FE000730FF0001305C
:101880008A110A1269258A150A12662C0030FE0098
:101890000630FF0001308A110A1269258A150A12E2
:1018A000662C0030FE000530FF0001308A110A125C
:1018B00069258A150A12662C0030FE000430FF00EC
:1018C00001308A110A1269258A150A120230FF00B6
:1018D000831203133F088A150A1236268A150A1244
:1018E00083120313C200C3014208CB3EBF00003085
:1018F000C40000300318430FC4073F0883120313CA
:10190000840083138312031344188317400883123F
:1019100003138000831203134208CB3EC200430826
:101920000318430F003EC300C20A0319C30A42084A
:101930008312031384008313831203134318831742
:10194000410883120313800008006C30FE000E3043
:10195000FF0080308A150A12E3258A150A128316C1
:101960000313AD007F08AC006E30AE000E30AF0048
:10197000831603132C08B0002D08B100FF30AC070C
:10198000031CAD033008310403193D2D04302E072C
:10199000B000B101B10D2F08B1073008FE003108C9
:1019A000FF0080308A150A12E3258A150A12831671
:1019B0000313B3007F08B2002E08FE002F08FF00BB
:1019C00080308A150A12E3258A150A12831603133A
:1019D000B500B1007F08B400B00002302E07B0009F
:1019E000B101B10D2F08B1073008FE003108FF002A
:1019F00080308A150A12E3258A150A12831603130A
:101A0000B100B7007F08B000B60083160313320898
:101A1000B6003308B700FF30B207031CB303360823
:101A200037040319362D3408FE003508FF008030D6
:101A30008A150A12D0258A150A1283160313B600D6
:101A400030088312031384008313831603133118A1
:101A50008317360883120313800083160313B40A16
:101A60000319B50AB00A0319B10A052D0630831609
:101A70000313AE070318AF0AB82C8A150A12412DBA
:101A800008000030FF0001308A150A1219228A1559
:101A90000A120030FF0000308A150A1219228A1536
:101AA0000A120030FF0000308A110A129B278A15A3
:101AB0000A120030FE000130FF0000308A150A12C1
:101AC00014248A150A120030FE000130FF00013094
:101AD0008A150A1214248A150A120030FE000130F9
:101AE000FF0002308A150A1214248A150A120030E7
:101AF000FE000130FF0003308A150A1214248A15F3
:101B00000A128A150A1264268A150A128A150A12FE
:101B100057268A150A128B2D080083160313E3003B
:101B20007F08E2007E08E5007D08E4006504031DEF
:101B30009D2DFF30FF00FF30CF2D013083160313A2
:101B4000E6008316031364086508E700E71BAD2D64
:101B50000310E40DE50DE60AA12D003083160313F2
:101B600066040319CA2D65086302031DB92D6408B4
:101B70006202031CC32D831603136408E202650886
:101B8000031C650FE302031083160313E50CE40C3A
:101B9000E603AD2D831603136208FF0063080800F7
:101BA000003A0319D72D803A0319DE2D00347E0840
:101BB000840083137F188317000808007F088A00B9
:101BC0007E0882000800003A0319EB2D803A0319C1
:101BD000F52DFF0100347E08840083137F188317DE
:101BE0000008FF00840A000808008A150A12DE2592
:101BF000FD00FE0FFF03FF0A8A150A12DE25FC0016
:101C00007D08FF007C08080083160313D4007F08BA
:101C1000D3000130D500D601831603135508D70031
:101C20005608D8005402031D172E57085302031CF0
:101C3000352E783083160313D700D801FF30831672
:101C400003135707D900FF30DA0058080318580F5C
:101C5000DA075908D7005A08D80059085A04031D52
:101C60001E2ED50A0319D60A0C2E0800831603135C
:101C7000E8007F08E900EA010830EB00831603134F
:101C8000681C442E6908EA07831603136808EC00F1
:101C900003106C0CE8000310690DEC00E9006B0305
:101CA000EC00EB006C08031D3E2E6A08080083124E
:101CB00003138B168B178316031301168112E03062
:101CC0008312031381000800831603138116811108
:101CD000011481140115080003340034FB34073467
:101CE0001434013402340034F034073465340034E1
:101CF0000B340034FD34073417340134013400341C
:02400E00323F3F
:00000001FF
