:020000040000FA
:1000000000008A150A12002883120313BE0005306F
:100010003E02031836280030831203138A00193079
:10002000831203133E07031C1828831203138A0A42
:1000300082001E28232828282D2832288312031303
:100040000509850036288312031306098600362821
:100050008312031307098700362883120313080944
:1000600088003628831203130909890008008312C7
:100070000313B4007F08B500053034020318322A98
:100080000030831203138A004E30831203133407A7
:10009000031C4D28831203138A0A82005328B328B5
:1000A00013297329D329003083120313B6000130BA
:1000B000B4003508003C0319642883120313B40DFF
:1000C000B60D013E031C5D2883120313050883123D
:1000D0000313B700B8013708B4050030B605360879
:1000E000B8003408B7003508003C03198128031014
:1000F00083120313B81B0314B80CB70C013E031C86
:100100007728831203133708B4000130B70035088D
:10011000003C0319912883120313B70D013E031C01
:100120008B2883120313B709831203130508831264
:100130000313B7053408003003190130B600B900C5
:100140003508003C0319AA2883120313B90D013E98
:10015000031CA428831203133708B6003904831242
:1001600003138500322A003083120313B7000130D5
:10017000B6003508003C0319C42883120313B60DDA
:10018000B70D013E031CBD2883120313060883121A
:100190000313B900BA013908B6050030B7053708AE
:1001A000BA003608B9003508003C0319E1280310ED
:1001B00083120313BA1B0314BA0CB90C013E031CBF
:1001C000D728831203133908B4000130B900350869
:1001D000003C0319F12883120313B90D013E031CDF
:1001E000EB2883120313B909831203130608831241
:1001F0000313B9053408003003190130B600B70005
:100200003508003C03190A2983120313B70D013E78
:10021000031C0429831203133908B6003704831220
:1002200003138600322A003083120313B700013013
:10023000B6003508003C0319242983120313B60DB8
:10024000B70D013E031C1D298312031307088312F7
:100250000313B900BB013908B6050030B7053708EC
:10026000BB003608B9003508003C031941290310CA
:1002700083120313BB1B0314BB0CB90C013E031CFC
:100280003729831203133908B4000130B900350847
:10029000003C0319512983120313B90D013E031CBD
:1002A0004B2983120313B90983120313070883121E
:1002B0000313B9053408003003190130B600B70044
:1002C0003508003C03196A2983120313B70D013E58
:1002D000031C6429831203133908B6003704831200
:1002E00003138700322A003083120313B700013052
:1002F000B6003508003C0319842983120313B60D98
:10030000B70D013E031C7D298312031308088312D5
:100310000313B900BC013908B6050030B70537082A
:10032000BC003608B9003508003C0319A1290310A8
:1003300083120313BC1B0314BC0CB90C013E031C39
:100340009729831203133908B4000130B900350826
:10035000003C0319B12983120313B90D013E031C9C
:10036000AB2983120313B9098312031308088312FC
:100370000313B9053408003003190130B600B70083
:100380003508003C0319CA2983120313B70D013E37
:10039000031CC429831203133908B60037048312DF
:1003A00003138800322A003083120313B700013090
:1003B000B6003508003C0319E42983120313B60D77
:1003C000B70D013E031CDD298312031309088312B4
:1003D0000313B900BD013908B6050030B705370869
:1003E000BD003608B9003508003C0319012A031086
:1003F00083120313BD1B0314BD0CB90C013E031C77
:10040000F729831203133908B4000130B900350805
:10041000003C0319112A83120313B90D013E031C7A
:100420000B2A83120313B9098312031309088312D9
:100430000313B9053408003003190130B600B400C5
:100440003508003C03192A2A83120313B40D013E18
:10045000031C242A831203133908B50034048312C1
:1004600003138900080083120313B200B30105309F
:1004700032020318702A0230831203138A004930B3
:10048000831203133207031C482A831203138A0AB8
:1004900082004E2A552A5C2A632A6A2A8312031391
:1004A000050883120313B300702A8312031306088E
:1004B00083120313B300702A8312031307088312F5
:1004C0000313B300702A8312031308088312031363
:1004D000B300702A83120313090883120313B300B5
:1004E000831203133308080083120313AC007F0840
:1004F000AD00AE0105302C0203188F2B02308312A1
:1005000003138A008C30831203132C07031C8B2ADD
:10051000831203138A0A8200912AC42AF72A2A2BFB
:100520005D2B003083120313AF000130AC002D08A7
:10053000003C0319A22A83120313AC0DAF0D013E38
:10054000031C9B2A83120313050883120313B000B4
:10055000B1013008AC050030AF052F08B1002C0800
:10056000B0002D08003C0319BF2A031083120313A7
:10057000B11B0314B10CB00C013E031CB52A83124D
:1005800003133008AE008F2B003083120313AF002B
:100590000130AC002D08003C0319D52A8312031347
:1005A000AC0DAF0D013E031CCE2A831203130608C7
:1005B00083120313B000B1013008AC050030AF0561
:1005C0002F08B1002C08B0002D08003C0319F22AB6
:1005D000031083120313B11B0314B10CB00C013EC2
:1005E000031CE82A831203133008AE008F2B00305F
:1005F00083120313AF000130AC002D08003C031937
:10060000082B83120313AC0DAF0D013E031C012B0D
:1006100083120313070883120313B000B1013008DB
:10062000AC050030AF052F08B1002C08B0002D0834
:10063000003C0319252B031083120313B11B031471
:10064000B10CB00C013E031C1B2B831203133008AA
:10065000AE008F2B003083120313AF000130AC00CB
:100660002D08003C03193B2B83120313AC0DAF0D77
:10067000013E031C342B8312031308088312031357
:10068000B000B1013008AC050030AF052F08B10053
:100690002C08B0002D08003C0319582B03108312BE
:1006A0000313B11B0314B10CB00C013E031C4E2B01
:1006B000831203133008AE008F2B00308312031314
:1006C000AF000130AC002D08003C03196E2B8312E3
:1006D0000313AC0DAF0D013E031C672B83120313F4
:1006E000090883120313B000B1013008AC050030D3
:1006F000AF052F08B1002C08B0002D08003C0319ED
:100700008B2B031083120313B11B0314B10CB00C19
:10071000013E031C812B831203133008AE008312A9
:1007200003132E08080083120313AA007F08AB00EE
:1007300005302A020318D12B0330831203138A00D9
:10074000AA30831203132A07031CA92B8312031355
:100750008A0A8200AF2BB62BBD2BC42BCB2B831266
:1007600003132B08831203138500D12B8312031369
:100770002B08831203138600D12B831203132B083B
:10078000831203138700D12B831203132B088312C8
:1007900003138800D12B831203132B088312031336
:1007A0008900080083120313A6007F08A7007E08B3
:1007B000A800053026020318C62C03308312031349
:1007C0008A00EB30831203132607031CEA2B8312E3
:1007D00003138A0A8200F02B1B2C462C712C9C2CB4
:1007E000013083120313A6002708003C0319FE2BD7
:1007F00083120313A60D013E031CF82B831203136F
:10080000A60983120313050883120313A6052808FB
:10081000A9002708003C0319132C83120313A90D08
:10082000013E031C0D2C8312031329082604831296
:1008300003138500C62C013083120313A60027087A
:10084000003C0319292C83120313A60D013E031C3F
:10085000232C83120313A6098312031306088312A1
:100860000313A6052808A9002708003C03193E2CFD
:1008700083120313A90D013E031C382C83120313AA
:1008800029082604831203138600C62C0130831224
:100890000313A6002708003C0319542C83120313EA
:1008A000A60D013E031C4E2C83120313A6098312CE
:1008B0000313070883120313A6052808A9002708B5
:1008C000003C0319692C83120313A90D013E031C7C
:1008D000632C831203132908260483120313870051
:1008E000C62C013083120313A6002708003C03190D
:1008F0007F2C83120313A60D013E031C792C831257
:100900000313A60983120313080883120313A60511
:100910002808A9002708003C0319942C831203130C
:10092000A90D013E031C8E2C8312031329082604F3
:10093000831203138800C62C013083120313A60010
:100940002708003C0319AA2C83120313A60D013EAD
:10095000031CA42C83120313A60983120313090892
:1009600083120313A6052808A9002708003C0319D1
:10097000BF2C83120313A90D013E031CB92C831253
:100980000313290826048312031389000800831225
:100990000313A4007F08A500053024020318052DC9
:1009A0000430831203138A00DE30831203132407FA
:1009B000031CDD2C831203138A0A8200E32CEA2C29
:1009C000F12CF82CFF2C8312031325088316031334
:1009D0008500052D83120313250883160313860053
:1009E000052D831203132508831603138700052D95
:1009F000831203132508831603138800052D831221
:100A000003132508831603138900080083120313B8
:100A1000A0007F08A1007E08A20005302002031874
:100A2000FA2D0530831203138A001F30831203133B
:100A30002007031C1E2D831203138A0A8200242D13
:100A40004F2D7A2DA52DD02D013083120313A00038
:100A50002108003C0319322D83120313A00D013E1F
:100A6000031C2C2D83120313A009831603130508FE
:100A700083120313A0052208A3002108003C0319D8
:100A8000472D83120313A30D013E031C412D831236
:100A9000031323082004831603138500FA2D013065
:100AA00083120313A0002108003C03195D2D83125B
:100AB0000313A00D013E031C572D83120313A0093D
:100AC00083160313060883120313A0052208A3004C
:100AD0002108003C0319722D83120313A30D013E5C
:100AE000031C6C2D831203132308200483160313A5
:100AF0008600FA2D013083120313A0002108003C68
:100B00000319882D83120313A00D013E031C822DAF
:100B100083120313A0098316031307088312031318
:100B2000A0052208A3002108003C03199D2D831273
:100B30000313A30D013E031C972D831203132308F7
:100B40002004831603138700FA2D01308312031348
:100B5000A0002108003C0319B32D83120313A00D3C
:100B6000013E031CAD2D83120313A009831603134A
:100B7000080883120313A0052208A3002108003CE3
:100B80000319C82D83120313A30D013E031CC22DAC
:100B90008312031323082004831603138800FA2DFD
:100BA000013083120313A0002108003C0319DE2D3D
:100BB00083120313A00D013E031CD82D83120313CF
:100BC000A00983160313090883120313A005220842
:100BD000A3002108003C0319F32D83120313A30D76
:100BE000013E031CED2D83120313230820048316FA
:100BF0000313890008000030FE000730FF000130B9
:100C00008A110A12D2238A110A120030FE0006301D
:100C1000FF0001308A110A12D2238A110A12003011
:100C2000FE000530FF0001308A110A12D2238A111A
:100C30000A120030FE000430FF0001308A110A124F
:100C4000D2238A110A12080083120313CF007F08EF
:100C5000D0000230FF004F088A150A12EE218A11D7
:100C60000A1283120313D100D2015108C23ECF00F1
:100C70000030D30000300318520FD307CF0A0319F6
:100C8000D30A4F08831203138400831383120313C0
:100C9000531883175008831203138000080083122F
:100CA0000313CA007F08CB000230FF004A088A15F0
:100CB0000A12EE218A110A1283120313CC00CD010D
:100CC0004C08C23ECA000030CE00003003184D0F61
:100CD000CE074A088312031384008313831203137D
:100CE0004E1883174B0883120313800008008312E9
:100CF0000313C501FB250230FF00831203134508CF
:100D00008A150A12EE218A110A1283120313C600F1
:100D1000C7014608C23EC8000030C90000300318B1
:100D2000470FC907480883120313840083138312F3
:100D3000031349188317831203130008013A031D94
:100D4000242F831203134608C23EC6004708031827
:100D5000470F003EC700C60A0319C70A4608831298
:100D6000031384008313831203134718831783121A
:100D70000313000883120313C800603EC60000304E
:100D80000318013EC700460883120313840083132F
:100D90008312031347188317831203130008831267
:100DA0000313C800FF0003308A110A1293238A112B
:100DB0000A12043083120313450203181C2F063055
:100DC000831203138A00ED30831203134507031CBB
:100DD000EC2E831203138A0A8200F12EFC2E072FB9
:100DE000122F0130FE000730FF0001308A110A1275
:100DF000D2238A110A121C2F0130FE000630FF0098
:100E000001308A110A12D2238A110A121C2F0130D2
:100E1000FE000530FF0001308A110A12D2238A1128
:100E20000A121C2F0130FE000430FF0001308A112D
:100E30000A12D2238A110A120130FF0000308A15EB
:100E40000A12C0218A110A1283120313C50A043040
:100E50004502031C7A2E080083120313BF007F088B
:100E6000C0007E08C1000030FF0003308A110A1262
:100E7000C7248A110A120430831203133F02031895
:100E80007E2F0730831203138A004F30831203131F
:100E90003F07031C4E2F831203138A0A8200532F2D
:100EA0005E2F692F742F0030FE000730FF000130E5
:100EB0008A110A1206258A110A127E2F0030FE00BE
:100EC0000630FF0001308A110A1206258A110A1223
:100ED0007E2F0030FE000530FF0001308A110A121B
:100EE00006258A110A127E2F0030FE000430FF0012
:100EF00001308A110A1206258A110A120230FF00F7
:100F0000831203133F088A150A12EE218A110A126E
:100F100083120313C200C3014208C23EBF00003067
:100F2000C40000300318430FC4073F0883120313A3
:100F30008400831383120313441883174008831219
:100F400003138000831203134208C23EC200430809
:100F50000318430F003EC300C20A0319C30A420824
:100F6000831203138400831383120313431883171C
:100F70004108831203138000080083160313B8008E
:100F80007F08B7007E08BA007D08B9003A04031D47
:100F9000CD2FFF30FF00FF30FF2F013083160313EA
:100FA000BB008316031339083A08BC00BC1BDD2FB5
:100FB0000310B90DBA0DBB0AD12F003083160313ED
:100FC0003B040319FA2F3A083802031DE92F3908A8
:100FD0003702031CF32F831603133908B7023A08AC
:100FE000031C3A0FB802031083160313BA0CB90C92
:100FF000BB03DD2F831603133708FF0038080800F2
:101000000F30FE000A30FF0080308A150A129F213F
:101010008A150A1283120313D5007F08D4001130F9
:10102000D6000A30D700831203135408D80055089D
:10103000D900FF30D407031CD503580859040319FD
:10104000982804305607D800D901D90D5708D90778
:101050005808FE005908FF0080308A150A129F21A7
:101060008A150A1283120313DB007F08DA00560880
:10107000FE005708FF0080308A150A129F218A154A
:101080000A1283120313DD00D9007F08DC00D800A8
:1010900002305607D800D901D90D5708D90758088A
:1010A000FE005908FF0080308A150A129F218A1518
:1010B0000A1283120313D900DF007F08D800DE0074
:1010C000831203135A08DE005B08DF00FF30DA07E3
:1010D000031CDB035E085F04031991285C08FE0013
:1010E0005D08FF0080308A150A128C218A150A12C9
:1010F00083120313DE005808831203138400831342
:1011000083120313591883175E0883120313800098
:1011100083120313DC0A0319DD0AD80A0319D90A5A
:101120006028063083120313D6070318D70A132842
:101130008A150A1250290800831603133D088316E6
:101140000313AE00831603133E0883160313AF0088
:101150002E08FF002F08080083160313BE007F0827
:10116000BD00080083160313BD0A0319BE0A3D081B
:1011700083160313A900831603133E088316031373
:10118000AA000330AB00AC010A30FD000030FE00C5
:10119000831603132908FF002A088A110A12BD27A3
:1011A0008A150A127F0883160313AD00FF002B086F
:1011B000AD008A110A1224268A150A120A30FD008F
:1011C0000030FE00831603132908FF002A088A1541
:1011D0000A1201218A150A1283160313AA007F0836
:1011E000A900FF30AB07031CAC030314AC1F0310B2
:1011F000031CC428080083160313BE007F08BD002B
:10120000080083160313A1007F08A0007E08A30036
:101210007D08A200A401A5010130A600A7012208B3
:101220002304031D1729FF30FF00FF304F298316C9
:10123000031322082308A800A81B25290310A20DC8
:10124000A30D0310A60DA70D172983160313260857
:10125000270403194A2923082102031D31292208E2
:101260002002031C4129831603132608A40727081C
:101270000318270FA5072208A0022308031C230F29
:10128000A102031083160313A30CA20C0310A70CD6
:10129000A60C2529831603132408FF00250808003F
:1012A000FC30FF0026308A150A12FB208A150A122C
:1012B0000030FE000130FF0000308A110A122C2796
:1012C0008A150A120030FE000130FF0001308A1139
:1012D0000A122C278A150A120030FE000130FF0086
:1012E00002308A110A122C278A150A120030FE00D9
:1012F0000130FF0003308A110A122C278A150A12C6
:101300008A150A12B2208A150A128A110A12772641
:101310008A150A1280290800003A03199329803A95
:1013200003199A2900347E08840083137F188317D9
:10133000000808007F088A007E0882000800003A42
:101340000319A729803A0319B129FF0100347E0847
:10135000840083137F1883170008FF00840A0008A5
:1013600008008A150A129A21FD00FE0FFF03FF0AEA
:101370008A150A129A21FC007D08FF007C080800EB
:1013800083160313B1007F08B0000130B200B3012F
:10139000013083160313B400B50183160313340818
:1013A000B60035083102031DD72936083002031C68
:1013B000DF2983160313B40A0319B50ACD2983164E
:1013C0000313B20A0319B30A3308803E7D3E031D9E
:1013D000EB29E9303202031CC829080083120313E9
:1013E000EB007F08EC00ED010830EE0083120313E0
:1013F0006B1CFC296C08ED07831203136B08EF00CC
:1014000003106F0CEB0003106C0DEF00EC006E038B
:10141000EF00EE006F08031DF6296D080800033485
:10142000003432340A34BF340034023400342334FC
:101430000A34603400340B34003434340A34C13498
:101440000034013400343F3406345B344F346634A6
:101450006D347D3407347F346F3400340800080065
:0A14600008000800003400340034D6
:02400E00323F3F
:00000001FF
