:020000040000FA
:1000000000008A150A128B2B83120313BE000530E1
:100010003E02031836280030831203138A00193079
:10002000831203133E07031C1828831203138A0A42
:1000300082001E28232828282D2832288312031303
:100040000509850036288312031306098600362821
:100050008312031307098700362883120313080944
:1000600088003628831203130909890008008312C7
:100070000313B4007F08B500053034020318322A98
:100080000030831203138A004E30831203133407A7
:10009000031C4D28831203138A0A82005328B328B5
:1000A00013297329D329003083120313B6000130BA
:1000B000B4003508003C0319642883120313B40DFF
:1000C000B60D013E031C5D2883120313050883123D
:1000D0000313B700B8013708B4050030B605360879
:1000E000B8003408B7003508003C03198128031014
:1000F00083120313B81B0314B80CB70C013E031C86
:100100007728831203133708B4000130B70035088D
:10011000003C0319912883120313B70D013E031C01
:100120008B2883120313B709831203130508831264
:100130000313B7053408003003190130B600B900C5
:100140003508003C0319AA2883120313B90D013E98
:10015000031CA428831203133708B6003904831242
:1001600003138500322A003083120313B7000130D5
:10017000B6003508003C0319C42883120313B60DDA
:10018000B70D013E031CBD2883120313060883121A
:100190000313B900BA013908B6050030B7053708AE
:1001A000BA003608B9003508003C0319E1280310ED
:1001B00083120313BA1B0314BA0CB90C013E031CBF
:1001C000D728831203133908B4000130B900350869
:1001D000003C0319F12883120313B90D013E031CDF
:1001E000EB2883120313B909831203130608831241
:1001F0000313B9053408003003190130B600B70005
:100200003508003C03190A2983120313B70D013E78
:10021000031C0429831203133908B6003704831220
:1002200003138600322A003083120313B700013013
:10023000B6003508003C0319242983120313B60DB8
:10024000B70D013E031C1D298312031307088312F7
:100250000313B900BB013908B6050030B7053708EC
:10026000BB003608B9003508003C031941290310CA
:1002700083120313BB1B0314BB0CB90C013E031CFC
:100280003729831203133908B4000130B900350847
:10029000003C0319512983120313B90D013E031CBD
:1002A0004B2983120313B90983120313070883121E
:1002B0000313B9053408003003190130B600B70044
:1002C0003508003C03196A2983120313B70D013E58
:1002D000031C6429831203133908B6003704831200
:1002E00003138700322A003083120313B700013052
:1002F000B6003508003C0319842983120313B60D98
:10030000B70D013E031C7D298312031308088312D5
:100310000313B900BC013908B6050030B70537082A
:10032000BC003608B9003508003C0319A1290310A8
:1003300083120313BC1B0314BC0CB90C013E031C39
:100340009729831203133908B4000130B900350826
:10035000003C0319B12983120313B90D013E031C9C
:10036000AB2983120313B9098312031308088312FC
:100370000313B9053408003003190130B600B70083
:100380003508003C0319CA2983120313B70D013E37
:10039000031CC429831203133908B60037048312DF
:1003A00003138800322A003083120313B700013090
:1003B000B6003508003C0319E42983120313B60D77
:1003C000B70D013E031CDD298312031309088312B4
:1003D0000313B900BD013908B6050030B705370869
:1003E000BD003608B9003508003C0319012A031086
:1003F00083120313BD1B0314BD0CB90C013E031C77
:10040000F729831203133908B4000130B900350805
:10041000003C0319112A83120313B90D013E031C7A
:100420000B2A83120313B9098312031309088312D9
:100430000313B9053408003003190130B600B400C5
:100440003508003C03192A2A83120313B40D013E18
:10045000031C242A831203133908B50034048312C1
:1004600003138900080083120313B200B30105309F
:1004700032020318702A0230831203138A004930B3
:10048000831203133207031C482A831203138A0AB8
:1004900082004E2A552A5C2A632A6A2A8312031391
:1004A000050883120313B300702A8312031306088E
:1004B00083120313B300702A8312031307088312F5
:1004C0000313B300702A8312031308088312031363
:1004D000B300702A83120313090883120313B300B5
:1004E000831203133308080083120313AC007F0840
:1004F000AD00AE0105302C0203188F2B02308312A1
:1005000003138A008C30831203132C07031C8B2ADD
:10051000831203138A0A8200912AC42AF72A2A2BFB
:100520005D2B003083120313AF000130AC002D08A7
:10053000003C0319A22A83120313AC0DAF0D013E38
:10054000031C9B2A83120313050883120313B000B4
:10055000B1013008AC050030AF052F08B1002C0800
:10056000B0002D08003C0319BF2A031083120313A7
:10057000B11B0314B10CB00C013E031CB52A83124D
:1005800003133008AE008F2B003083120313AF002B
:100590000130AC002D08003C0319D52A8312031347
:1005A000AC0DAF0D013E031CCE2A831203130608C7
:1005B00083120313B000B1013008AC050030AF0561
:1005C0002F08B1002C08B0002D08003C0319F22AB6
:1005D000031083120313B11B0314B10CB00C013EC2
:1005E000031CE82A831203133008AE008F2B00305F
:1005F00083120313AF000130AC002D08003C031937
:10060000082B83120313AC0DAF0D013E031C012B0D
:1006100083120313070883120313B000B1013008DB
:10062000AC050030AF052F08B1002C08B0002D0834
:10063000003C0319252B031083120313B11B031471
:10064000B10CB00C013E031C1B2B831203133008AA
:10065000AE008F2B003083120313AF000130AC00CB
:100660002D08003C03193B2B83120313AC0DAF0D77
:10067000013E031C342B8312031308088312031357
:10068000B000B1013008AC050030AF052F08B10053
:100690002C08B0002D08003C0319582B03108312BE
:1006A0000313B11B0314B10CB00C013E031C4E2B01
:1006B000831203133008AE008F2B00308312031314
:1006C000AF000130AC002D08003C03196E2B8312E3
:1006D0000313AC0DAF0D013E031C672B83120313F4
:1006E000090883120313B000B1013008AC050030D3
:1006F000AF052F08B1002C08B0002D08003C0319ED
:100700008B2B031083120313B11B0314B10CB00C19
:10071000013E031C812B831203133008AE008312A9
:1007200003132E08080083120313AA007F08AB00EE
:1007300005302A020318D12B0330831203138A00D9
:10074000AA30831203132A07031CA92B8312031355
:100750008A0A8200AF2BB62BBD2BC42BCB2B831266
:1007600003132B08831203138500D12B8312031369
:100770002B08831203138600D12B831203132B083B
:10078000831203138700D12B831203132B088312C8
:1007900003138800D12B831203132B088312031336
:1007A0008900080083120313A6007F08A7007E08B3
:1007B000A800053026020318C62C03308312031349
:1007C0008A00EB30831203132607031CEA2B8312E3
:1007D00003138A0A8200F02B1B2C462C712C9C2CB4
:1007E000013083120313A6002708003C0319FE2BD7
:1007F00083120313A60D013E031CF82B831203136F
:10080000A60983120313050883120313A6052808FB
:10081000A9002708003C0319132C83120313A90D08
:10082000013E031C0D2C8312031329082604831296
:1008300003138500C62C013083120313A60027087A
:10084000003C0319292C83120313A60D013E031C3F
:10085000232C83120313A6098312031306088312A1
:100860000313A6052808A9002708003C03193E2CFD
:1008700083120313A90D013E031C382C83120313AA
:1008800029082604831203138600C62C0130831224
:100890000313A6002708003C0319542C83120313EA
:1008A000A60D013E031C4E2C83120313A6098312CE
:1008B0000313070883120313A6052808A9002708B5
:1008C000003C0319692C83120313A90D013E031C7C
:1008D000632C831203132908260483120313870051
:1008E000C62C013083120313A6002708003C03190D
:1008F0007F2C83120313A60D013E031C792C831257
:100900000313A60983120313080883120313A60511
:100910002808A9002708003C0319942C831203130C
:10092000A90D013E031C8E2C8312031329082604F3
:10093000831203138800C62C013083120313A60010
:100940002708003C0319AA2C83120313A60D013EAD
:10095000031CA42C83120313A60983120313090892
:1009600083120313A6052808A9002708003C0319D1
:10097000BF2C83120313A90D013E031CB92C831253
:100980000313290826048312031389000800831225
:100990000313A4007F08A500053024020318052DC9
:1009A0000430831203138A00DE30831203132407FA
:1009B000031CDD2C831203138A0A8200E32CEA2C29
:1009C000F12CF82CFF2C8312031325088316031334
:1009D0008500052D83120313250883160313860053
:1009E000052D831203132508831603138700052D95
:1009F000831203132508831603138800052D831221
:100A000003132508831603138900080083120313B8
:100A1000A0007F08A1007E08A20005302002031874
:100A2000FA2D0530831203138A001F30831203133B
:100A30002007031C1E2D831203138A0A8200242D13
:100A40004F2D7A2DA52DD02D013083120313A00038
:100A50002108003C0319322D83120313A00D013E1F
:100A6000031C2C2D83120313A009831603130508FE
:100A700083120313A0052208A3002108003C0319D8
:100A8000472D83120313A30D013E031C412D831236
:100A9000031323082004831603138500FA2D013065
:100AA00083120313A0002108003C03195D2D83125B
:100AB0000313A00D013E031C572D83120313A0093D
:100AC00083160313060883120313A0052208A3004C
:100AD0002108003C0319722D83120313A30D013E5C
:100AE000031C6C2D831203132308200483160313A5
:100AF0008600FA2D013083120313A0002108003C68
:100B00000319882D83120313A00D013E031C822DAF
:100B100083120313A0098316031307088312031318
:100B2000A0052208A3002108003C03199D2D831273
:100B30000313A30D013E031C972D831203132308F7
:100B40002004831603138700FA2D01308312031348
:100B5000A0002108003C0319B32D83120313A00D3C
:100B6000013E031CAD2D83120313A009831603134A
:100B7000080883120313A0052208A3002108003CE3
:100B80000319C82D83120313A30D013E031CC22DAC
:100B90008312031323082004831603138800FA2DFD
:100BA000013083120313A0002108003C0319DE2D3D
:100BB00083120313A00D013E031CD82D83120313CF
:100BC000A00983160313090883120313A005220842
:100BD000A3002108003C0319F32D83120313A30D76
:100BE000013E031CED2D83120313230820048316FA
:100BF0000313890008000030FE000730FF000130B9
:100C00008A110A12D2238A110A120030FE0006301D
:100C1000FF0001308A110A12D2238A110A12003011
:100C2000FE000530FF0001308A110A12D2238A111A
:100C30000A120030FE000430FF0001308A110A124F
:100C4000D2238A110A12080083120313CF007F08EF
:100C5000D0000230FF004F088A150A122D258A1194
:100C60000A1283120313D100D2015108C13ECF00F2
:100C70000030D30000300318520FD307CF0A0319F6
:100C8000D30A4F08831203138400831383120313C0
:100C9000531883175008831203138000080083122F
:100CA0000313CA007F08CB000230FF004A088A15F0
:100CB0000A122D258A110A1283120313CC00CD01CA
:100CC0004C08C13ECA000030CE00003003184D0F62
:100CD000CE074A088312031384008313831203137D
:100CE0004E1883174B0883120313800008008312E9
:100CF0000313C501FB250230FF00831203134508CF
:100D00008A150A122D258A110A1283120313C600AE
:100D1000C7014608C13EC8000030C90000300318B2
:100D2000470FC907480883120313840083138312F3
:100D3000031349188317831203130008013A031D94
:100D4000242F831203134608C13EC6004708031828
:100D5000470F003EC700C60A0319C70A4608831298
:100D6000031384008313831203134718831783121A
:100D70000313000883120313C800653EC600003049
:100D80000318013EC700460883120313840083132F
:100D90008312031347188317831203130008831267
:100DA0000313C800FF0003308A110A1293238A112B
:100DB0000A12043083120313450203181C2F063055
:100DC000831203138A00ED30831203134507031CBB
:100DD000EC2E831203138A0A8200F12EFC2E072FB9
:100DE000122F0130FE000730FF0001308A110A1275
:100DF000D2238A110A121C2F0130FE000630FF0098
:100E000001308A110A12D2238A110A121C2F0130D2
:100E1000FE000530FF0001308A110A12D2238A1128
:100E20000A121C2F0130FE000430FF0001308A112D
:100E30000A12D2238A110A121430FF0000308A15D8
:100E40000A12FB248A110A1283120313C50A043002
:100E50004502031C7A2E080083120313BF007F088B
:100E6000C0007E08C1000030FF0003308A110A1262
:100E7000C7248A110A120430831203133F02031895
:100E80007E2F0730831203138A004F30831203131F
:100E90003F07031C4E2F831203138A0A8200532F2D
:100EA0005E2F692F742F0030FE000730FF000130E5
:100EB0008A110A1206258A110A127E2F0030FE00BE
:100EC0000630FF0001308A110A1206258A110A1223
:100ED0007E2F0030FE000530FF0001308A110A121B
:100EE00006258A110A127E2F0030FE000430FF0012
:100EF00001308A110A1206258A110A120230FF00F7
:100F0000831203133F088A150A122D258A110A122B
:100F100083120313C200C3014208C13EBF00003068
:100F2000C40000300318430FC4073F0883120313A3
:100F30008400831383120313441883174008831219
:100F400003138000831203134208C13EC20043080A
:100F50000318430F003EC300C20A0319C30A420824
:100F6000831203138400831383120313431883171C
:100F70004108831203138000080083160313D9006D
:100F80007F08D8007E08DB007D08DA005B04031DC3
:100F9000CD2FFF30FF00FF30FF2F013083160313EA
:100FA000DC00831603135A085B08DD00DD1BDD2F10
:100FB0000310DA0DDB0DDC0AD12F0030831603138A
:100FC0005C040319FA2F5B085902031DE92F5A0824
:100FD0005802031CF32F831603135A08D8025B0828
:100FE000031C5B0FD902031083160313DB0CDA0C0E
:100FF000DC03DD2F831603135808FF00590808008F
:1010000083120313E1000330FF0061088A150A12FE
:101010002D258A150A1283120313E200E3016208E8
:10102000A03EE1000030E40000300318630FE40745
:101030000230E1070318E40A6108831203138400F5
:101040008313831203136418831783120313000896
:1010500083120313E200080083120313D901033043
:10106000FF008312031359088A150A122D258A15C9
:101070000A1283120313DA00DB015A08A03EDC00D7
:101080000030DD00003003185B0FDD075A08A03E7A
:10109000DA005B0803185B0F003EDB00DA0A031975
:1010A000DB0A5A0883120313840083138312031389
:1010B0005B18831783120313000883120313DE00E7
:1010C0005C088312031384008313831203135D18D7
:1010D00083175E0883120313800004308312031306
:1010E00059020318E8280830831203138A0081305C
:1010F000831203135907031C8028831203138A0ADF
:10110000820085289E28B728D0280030FF000130B3
:101110008A110A1274228A150A1283120313DC0040
:101120005A088312031384008313831203135B187A
:1011300083175C08831203138000E8280130FF0046
:1011400001308A110A1274228A150A1283120313BB
:10115000DC005A08831203138400831383120313E1
:101160005B1883175C08831203138000E8280230A1
:10117000FF0001308A110A1274228A150A128312A2
:101180000313DC005A0883120313840083138312B1
:1011900003135B1883175C08831203138000E8288D
:1011A0000330FF0001308A110A1274228A150A12D4
:1011B00083120313DC005A08831203138400831381
:1011C000831203135B1883175C08831203138000D8
:1011D0000330FF008312031359088A150A122D25C4
:1011E0008A150A1283120313DA00DB015A08A03EA3
:1011F000DA00003003185B0F003EDB0002305A07B4
:10120000DC00DD01DD0D5B08DD075C0883120313E4
:1012100084008313831203135D188317831203134F
:10122000000883120313DE0004305E020318112A43
:101230000930831203138A002630831203135E07DA
:10124000031C2529831203138A0A82002A29DB2919
:10125000A0296529831203135A08831203138400FB
:101260008313831203135B1883178312031300087D
:1012700083120313DE005E08031D112A01305A0792
:10128000DE00DF01DF0D5B08DF075E08831203135A
:1012900084008313831203135F18831783120313CD
:1012A000000883120313E0006008031D112A5C0884
:1012B0008312031384008313831203135D188317AF
:1012C0000330831203138000112A831203135A0878
:1012D0008312031384008313831203135B18831791
:1012E00083120313000883120313DE005E08031D3C
:1012F000112A01305A07DE00DF01DF0D5B08DF072E
:101300005E088312031384008313831203135F1890
:10131000831783120313000883120313E00060088D
:10132000031D112A5C0883120313840083138312A4
:1013300003135D1883170230831203138000112AF0
:10134000831203135A088312031384008313831236
:1013500003135B188317831203130008831203130C
:10136000DE00013A031D112A01305A07DE00DF01B9
:10137000DF0D5B08DF075E0883120313840083130D
:10138000831203135F188317831203130008831259
:101390000313E000013A031D112A5C0883120313B2
:1013A00084008313831203135D18831701308312A3
:1013B00003138000112A831203135A0883120313A4
:1013C00084008313831203135B18831783120313A0
:1013D000000883120313DE00013A031D112ADA0A02
:1013E0000319DB0A5A088312031384008313831240
:1013F00003135B188317831203130008831203136C
:10140000DE00013A031D112A5C08831203138400D5
:101410008313831203135D188317013083120313A0
:10142000800083120313D90A04305902031C2F28A9
:10143000080083120313D4007F08D500043054023F
:1014400003185F2A0A30831203138A003030831294
:1014500003135407031C2F2A831203138A0A8200E2
:10146000342A3F2A4A2A552A0130FE000030FF0064
:1014700001308A110A1206258A150A125F2A0130E4
:10148000FE000130FF0001308A110A1206258A157C
:101490000A125F2A0130FE000230FF0001308A117B
:1014A0000A1206258A150A125F2A0130FE0003304F
:1014B000FF0001308A110A1206258A150A1203302C
:1014C000FF008312031354088A150A122D258A156A
:1014D0000A1283120313D600D7015608A03ED60085
:1014E0000030D40000300318570FD40702305607DD
:1014F000D700D801D80D5408D80757088312031312
:10150000840083138312031358188317550883121A
:101510000313800004308312031355020318E92AD1
:101520000A30831203138A009E3083120313550777
:10153000031C9D2A831203138A0A8200A22AA22A6C
:10154000C82AC82A8312031356088312031384007F
:101550008313831203135418831701308312031368
:1015600080000130831203135607D500D701D70D31
:101570005408D7075508831203138400831383127A
:101580000313571883170130831203138000E92ACD
:1015900083120313560883120313840083138312E8
:1015A000031354188317003083120313800083122F
:1015B0000313D60A0319D40A5608831203138400AE
:1015C00083138312031354188317003083120313F9
:1015D0008000080083160313630883160313D600E4
:1015E00083160313640883160313D7005608FF00FD
:1015F0005708080083160313E4007F08E30008007F
:1016000000308A150A1200208A150A128316031365
:10161000D10001308A150A1200208A150A12831699
:101620000313D200013A031D192B83160313E301A0
:10163000E401831603135108013A031D3F2B0130C7
:1016400083160313630783160313D100D201D20D4F
:1016500083160313640883160313D2070F30FD00AB
:101660002730FE005108FF0052088A110A12BD27D8
:101670008A150A1283160313E4007F08E300831619
:101680000313630883160313D1008316031364083E
:1016900083160313D2000330D300D4010A30FD00B7
:1016A0000030FE00831603135108FF0052088A1110
:1016B0000A12BD278A150A127F0883160313D50064
:1016C000FF005308D5008A110A1224268A150A122F
:1016D0000A30FD000030FE00831603135108FF009E
:1016E00052088A150A1278248A150A1283160313DF
:1016F000D2007F08D100FF30D307031CD4030314AA
:10170000D41F0310031C4E2B080083160313E400A0
:101710007F08E30008004E30FE000D30FF008030EF
:101720008A150A12DA248A150A1283160313AD00E9
:101730007F08AC005030AE000D30AF0083160313AD
:101740002C08B0002D08B100FF30AC07031CAD031E
:10175000300831040319232C04302E07B000B101E6
:10176000B10D2F08B1073008FE003108FF008030AE
:101770008A150A12DA248A150A1283160313B30093
:101780007F08B2002E08FE002F08FF0080308A1567
:101790000A12DA248A150A1283160313B500B1005F
:1017A0007F08B400B00002302E07B000B101B10DC7
:1017B0002F08B1073008FE003108FF0080308A157D
:1017C0000A12DA248A150A1283160313B100B7002D
:1017D0007F08B000B600831603133208B600330842
:1017E000B700FF30B207031CB303360837040319F0
:1017F0001C2C3408FE003508FF0080308A150A12C0
:10180000C7248A150A1283160313B6003008831200
:1018100003138400831383160313311883173608C8
:1018200083120313800083160313B40A0319B50A45
:10183000B00A0319B10AEB2B063083160313AE0767
:101840000318AF0A9E2B8A150A12272C08000030B5
:10185000FF0001308A150A1219228A150A12003077
:10186000FF0000308A150A1219228A150A12643004
:10187000FF0000308A150A1285238A150A120030EB
:10188000FE000130FF0000308A110A122C278A1551
:101890000A120030FE000130FF0001308A110A12E6
:1018A0002C278A150A120030FE000130FF0002309A
:1018B0008A110A122C278A150A120030FE00013004
:1018C000FF0003308A110A122C278A150A128A1582
:1018D0000A122C208A150A128A150A1200238A1568
:1018E0000A128A110A1277268A150A12672C080032
:1018F00083160313B9007F08B8007E08BB007D087B
:10190000BA00BC01BD010130BE00BF013A083B0472
:10191000031D8E2CFF30FF00FF30C62C83160313EF
:101920003A083B08C000C01B9C2C0310BA0DBB0D2D
:101930000310BE0DBF0D8E2C831603133E083F040B
:101940000319C12C3B083902031DA82C3A083802A0
:10195000031CB82C831603133E08BC073F0803186A
:101960003F0FBD073A08B8023B08031C3B0FB90202
:10197000031083160313BB0CBA0C0310BF0CBE0C70
:101980009C2C831603133C08FF003D080800003A16
:101990000319CE2C803A0319D52C00347E0884001C
:1019A00083137F188317000808007F088A007E08C9
:1019B00082000800003A0319E22C803A0319EC2C4B
:1019C000FF0100347E08840083137F18831700080A
:1019D000FF00840A000808008A150A12D524FD00B9
:1019E000FE0FFF03FF0A8A150A12D524FC007D08AA
:1019F000FF007C08080083160313CA007F08C90093
:101A00000130CB00CC01831603134B08CD004C08EA
:101A1000CE004A02031D0E2D4D084902031C2C2D39
:101A2000783083160313CD00CE01FF3083160313E5
:101A30004D07CF00FF30D0004E0803184E0FD007DF
:101A40004F08CD005008CE004F085004031D152D3F
:101A5000CB0A0319CC0A032D080083160313DE00FA
:101A60007F08DF00E0010830E100831603135E1CED
:101A70003B2D5F08E007831603135E08E2000310A6
:101A8000620CDE0003105F0DE200DF006103E20084
:101A9000E1006208031D352D60080800033400349E
:101AA0006D340D34E53400340234003462340D34C6
:101AB000653400340B3400346F340D34E7340034B3
:101AC000013400343F3406345B344F3466346D34B3
:101AD0007D3407347F346F340034003400340034F4
:02400E00323F3F
:00000001FF
